{
  "_format": "hh-sol-artifact-1",
  "contractName": "VehicleInspectionCertification",
  "sourceName": "contracts/vehicle_inspection.sol",
  "abi": [
    {
      "inputs": [],
      "stateMutability": "nonpayable",
      "type": "constructor"
    },
    {
      "inputs": [
        {
          "internalType": "uint256",
          "name": "",
          "type": "uint256"
        }
      ],
      "name": "certificates",
      "outputs": [
        {
          "internalType": "string",
          "name": "vehiclePlate",
          "type": "string"
        },
        {
          "internalType": "string",
          "name": "inspectionCenter",
          "type": "string"
        },
        {
          "internalType": "uint256",
          "name": "inspectionDate",
          "type": "uint256"
        },
        {
          "internalType": "uint256",
          "name": "expiryDate",
          "type": "uint256"
        },
        {
          "internalType": "bool",
          "name": "isValid",
          "type": "bool"
        },
        {
          "internalType": "uint256",
          "name": "revokedDate",
          "type": "uint256"
        }
      ],
      "stateMutability": "view",
      "type": "function"
    },
    {
      "inputs": [
        {
          "internalType": "string",
          "name": "_vehiclePlate",
          "type": "string"
        }
      ],
      "name": "getCertificate",
      "outputs": [
        {
          "internalType": "string",
          "name": "vehiclePlate",
          "type": "string"
        },
        {
          "internalType": "string",
          "name": "inspectionCenter",
          "type": "string"
        },
        {
          "internalType": "uint256",
          "name": "inspectionDate",
          "type": "uint256"
        },
        {
          "internalType": "uint256",
          "name": "expiryDate",
          "type": "uint256"
        },
        {
          "internalType": "bool",
          "name": "isValid",
          "type": "bool"
        },
        {
          "internalType": "uint256",
          "name": "revokedDate",
          "type": "uint256"
        }
      ],
      "stateMutability": "view",
      "type": "function"
    },
    {
      "inputs": [],
      "name": "getTotalCertificates",
      "outputs": [
        {
          "internalType": "uint256",
          "name": "",
          "type": "uint256"
        }
      ],
      "stateMutability": "view",
      "type": "function"
    },
    {
      "inputs": [
        {
          "internalType": "string",
          "name": "_vehiclePlate",
          "type": "string"
        },
        {
          "internalType": "string",
          "name": "_inspectionCenter",
          "type": "string"
        },
        {
          "internalType": "uint256",
          "name": "_expiryDate",
          "type": "uint256"
        }
      ],
      "name": "issueCertificate",
      "outputs": [],
      "stateMutability": "nonpayable",
      "type": "function"
    },
    {
      "inputs": [],
      "name": "owner",
      "outputs": [
        {
          "internalType": "address",
          "name": "",
          "type": "address"
        }
      ],
      "stateMutability": "view",
      "type": "function"
    },
    {
      "inputs": [
        {
          "internalType": "string",
          "name": "_vehiclePlate",
          "type": "string"
        }
      ],
      "name": "revokeCertificate",
      "outputs": [],
      "stateMutability": "nonpayable",
      "type": "function"
    }
  ],
  "bytecode": "0x6080604052348015600f57600080fd5b50336000806101000a81548173ffffffffffffffffffffffffffffffffffffffff021916908373ffffffffffffffffffffffffffffffffffffffff1602179055506110f98061005f6000396000f3fe608060405234801561001057600080fd5b50600436106100625760003560e01c8063142e154214610067578063291fd18f14610083578063663b3e221461009f5780637843bb79146100d45780638da5cb5b146100f2578063ed0f2e7514610110575b600080fd5b610081600480360381019061007c91906109a4565b610145565b005b61009d60048036038101906100989190610a23565b6102e4565b005b6100b960048036038101906100b49190610aae565b61043f565b6040516100cb96959493929190610b84565b60405180910390f35b6100dc6105a8565b6040516100e99190610bf3565b60405180910390f35b6100fa6105b5565b6040516101079190610c4f565b60405180910390f35b61012a600480360381019061012591906109a4565b6105d9565b60405161013c96959493929190610b84565b60405180910390f35b60008054906101000a900473ffffffffffffffffffffffffffffffffffffffff1673ffffffffffffffffffffffffffffffffffffffff163373ffffffffffffffffffffffffffffffffffffffff16146101d3576040517f08c379a00000000000000000000000000000000000000000000000000000000081526004016101ca90610cdc565b60405180910390fd5b60005b6001805490508110156102e0578180519060200120600182815481106101ff576101fe610cfc565b5b906000526020600020906006020160000160405161021d9190610e2e565b604051809103902014801561026157506001818154811061024157610240610cfc565b5b906000526020600020906006020160040160009054906101000a900460ff165b156102d35760006001828154811061027c5761027b610cfc565b5b906000526020600020906006020160040160006101000a81548160ff02191690831515021790555042600182815481106102b9576102b8610cfc565b5b9060005260206000209060060201600501819055506102e0565b80806001019150506101d6565b5050565b60008054906101000a900473ffffffffffffffffffffffffffffffffffffffff1673ffffffffffffffffffffffffffffffffffffffff163373ffffffffffffffffffffffffffffffffffffffff1614610372576040517f08c379a000000000000000000000000000000000000000000000000000000000815260040161036990610cdc565b60405180910390fd5b60016040518060c001604052808581526020018481526020014281526020018381526020016001151581526020016000815250908060018154018082558091505060019003906000526020600020906006020160009091909190915060008201518160000190816103e39190610ff1565b5060208201518160010190816103f99190610ff1565b50604082015181600201556060820151816003015560808201518160040160006101000a81548160ff02191690831515021790555060a082015181600501555050505050565b6001818154811061044f57600080fd5b906000526020600020906006020160009150905080600001805461047290610d5a565b80601f016020809104026020016040519081016040528092919081815260200182805461049e90610d5a565b80156104eb5780601f106104c0576101008083540402835291602001916104eb565b820191906000526020600020905b8154815290600101906020018083116104ce57829003601f168201915b50505050509080600101805461050090610d5a565b80601f016020809104026020016040519081016040528092919081815260200182805461052c90610d5a565b80156105795780601f1061054e57610100808354040283529160200191610579565b820191906000526020600020905b81548152906001019060200180831161055c57829003601f168201915b5050505050908060020154908060030154908060040160009054906101000a900460ff16908060050154905086565b6000600180549050905090565b60008054906101000a900473ffffffffffffffffffffffffffffffffffffffff1681565b60608060008060008060005b6001805490508110156108055787805190602001206001828154811061060e5761060d610cfc565b5b906000526020600020906006020160000160405161062c9190610e2e565b6040518091039020036107f85760006001828154811061064f5761064e610cfc565b5b90600052602060002090600602016040518060c001604052908160008201805461067890610d5a565b80601f01602080910402602001604051908101604052809291908181526020018280546106a490610d5a565b80156106f15780601f106106c6576101008083540402835291602001916106f1565b820191906000526020600020905b8154815290600101906020018083116106d457829003601f168201915b5050505050815260200160018201805461070a90610d5a565b80601f016020809104026020016040519081016040528092919081815260200182805461073690610d5a565b80156107835780601f1061075857610100808354040283529160200191610783565b820191906000526020600020905b81548152906001019060200180831161076657829003601f168201915b5050505050815260200160028201548152602001600382015481526020016004820160009054906101000a900460ff161515151581526020016005820154815250509050806000015181602001518260400151836060015184608001518560a001519750975097509750975097505050610841565b80806001019150506105e5565b50600080600080604051806020016040528060008152509392919060405180602001604052806000815250939291909550955095509550955095505b91939550919395565b6000604051905090565b600080fd5b600080fd5b600080fd5b600080fd5b6000601f19601f8301169050919050565b7f4e487b7100000000000000000000000000000000000000000000000000000000600052604160045260246000fd5b6108b182610868565b810181811067ffffffffffffffff821117156108d0576108cf610879565b5b80604052505050565b60006108e361084a565b90506108ef82826108a8565b919050565b600067ffffffffffffffff82111561090f5761090e610879565b5b61091882610868565b9050602081019050919050565b82818337600083830152505050565b6000610947610942846108f4565b6108d9565b90508281526020810184848401111561096357610962610863565b5b61096e848285610925565b509392505050565b600082601f83011261098b5761098a61085e565b5b813561099b848260208601610934565b91505092915050565b6000602082840312156109ba576109b9610854565b5b600082013567ffffffffffffffff8111156109d8576109d7610859565b5b6109e484828501610976565b91505092915050565b6000819050919050565b610a00816109ed565b8114610a0b57600080fd5b50565b600081359050610a1d816109f7565b92915050565b600080600060608486031215610a3c57610a3b610854565b5b600084013567ffffffffffffffff811115610a5a57610a59610859565b5b610a6686828701610976565b935050602084013567ffffffffffffffff811115610a8757610a86610859565b5b610a9386828701610976565b9250506040610aa486828701610a0e565b9150509250925092565b600060208284031215610ac457610ac3610854565b5b6000610ad284828501610a0e565b91505092915050565b600081519050919050565b600082825260208201905092915050565b60005b83811015610b15578082015181840152602081019050610afa565b60008484015250505050565b6000610b2c82610adb565b610b368185610ae6565b9350610b46818560208601610af7565b610b4f81610868565b840191505092915050565b610b63816109ed565b82525050565b60008115159050919050565b610b7e81610b69565b82525050565b600060c0820190508181036000830152610b9e8189610b21565b90508181036020830152610bb28188610b21565b9050610bc16040830187610b5a565b610bce6060830186610b5a565b610bdb6080830185610b75565b610be860a0830184610b5a565b979650505050505050565b6000602082019050610c086000830184610b5a565b92915050565b600073ffffffffffffffffffffffffffffffffffffffff82169050919050565b6000610c3982610c0e565b9050919050565b610c4981610c2e565b82525050565b6000602082019050610c646000830184610c40565b92915050565b7f4f6e6c7920746865206f776e65722063616e20706572666f726d20746869732060008201527f616374696f6e0000000000000000000000000000000000000000000000000000602082015250565b6000610cc6602683610ae6565b9150610cd182610c6a565b604082019050919050565b60006020820190508181036000830152610cf581610cb9565b9050919050565b7f4e487b7100000000000000000000000000000000000000000000000000000000600052603260045260246000fd5b7f4e487b7100000000000000000000000000000000000000000000000000000000600052602260045260246000fd5b60006002820490506001821680610d7257607f821691505b602082108103610d8557610d84610d2b565b5b50919050565b600081905092915050565b60008190508160005260206000209050919050565b60008154610db881610d5a565b610dc28186610d8b565b94506001821660008114610ddd5760018114610df257610e25565b60ff1983168652811515820286019350610e25565b610dfb85610d96565b60005b83811015610e1d57815481890152600182019150602081019050610dfe565b838801955050505b50505092915050565b6000610e3a8284610dab565b915081905092915050565b60008190508160005260206000209050919050565b60006020601f8301049050919050565b600082821b905092915050565b600060088302610ea77fffffffffffffffffffffffffffffffffffffffffffffffffffffffffffffffff82610e6a565b610eb18683610e6a565b95508019841693508086168417925050509392505050565b6000819050919050565b6000610eee610ee9610ee4846109ed565b610ec9565b6109ed565b9050919050565b6000819050919050565b610f0883610ed3565b610f1c610f1482610ef5565b848454610e77565b825550505050565b600090565b610f31610f24565b610f3c818484610eff565b505050565b5b81811015610f6057610f55600082610f29565b600181019050610f42565b5050565b601f821115610fa557610f7681610e45565b610f7f84610e5a565b81016020851015610f8e578190505b610fa2610f9a85610e5a565b830182610f41565b50505b505050565b600082821c905092915050565b6000610fc860001984600802610faa565b1980831691505092915050565b6000610fe18383610fb7565b9150826002028217905092915050565b610ffa82610adb565b67ffffffffffffffff81111561101357611012610879565b5b61101d8254610d5a565b611028828285610f64565b600060209050601f83116001811461105b5760008415611049578287015190505b6110538582610fd5565b8655506110bb565b601f19841661106986610e45565b60005b828110156110915784890151825560018201915060208501945060208101905061106c565b868310156110ae57848901516110aa601f891682610fb7565b8355505b6001600288020188555050505b50505050505056fea2646970667358221220c19200bc207c43ab0ca08f14f13c11ae5f833df8ddc3cdfe382408b9c0fdcf9c64736f6c634300081c0033",
  "linkReferences": {},
  "deployedLinkReferences": {}
}